{
  "_format": "hh-sol-artifact-1",
  "contractName": "Web3RSVP",
  "sourceName": "contracts/Web3RSVP.sol",
  "abi": [
    {
      "anonymous": false,
      "inputs": [
        {
          "indexed": false,
          "internalType": "bytes32",
          "name": "eventID",
          "type": "bytes32"
        },
        {
          "indexed": false,
          "internalType": "address",
          "name": "attendeeAddress",
          "type": "address"
        }
      ],
      "name": "ConfirmedAttendee",
      "type": "event"
    },
    {
      "anonymous": false,
      "inputs": [
        {
          "indexed": false,
          "internalType": "bytes32",
          "name": "eventID",
          "type": "bytes32"
        }
      ],
      "name": "DepositsPaidOut",
      "type": "event"
    },
    {
      "anonymous": false,
      "inputs": [
        {
          "indexed": false,
          "internalType": "bytes32",
          "name": "eventID",
          "type": "bytes32"
        },
        {
          "indexed": false,
          "internalType": "address",
          "name": "creatorAddress",
          "type": "address"
        },
        {
          "indexed": false,
          "internalType": "uint256",
          "name": "eventTimestamp",
          "type": "uint256"
        },
        {
          "indexed": false,
          "internalType": "uint256",
          "name": "maxCapacity",
          "type": "uint256"
        },
        {
          "indexed": false,
          "internalType": "uint256",
          "name": "deposit",
          "type": "uint256"
        },
        {
          "indexed": false,
          "internalType": "string",
          "name": "eventDataCID",
          "type": "string"
        }
      ],
      "name": "NewEventCreated",
      "type": "event"
    },
    {
      "anonymous": false,
      "inputs": [
        {
          "indexed": false,
          "internalType": "bytes32",
          "name": "eventID",
          "type": "bytes32"
        },
        {
          "indexed": false,
          "internalType": "address",
          "name": "attendeeAddress",
          "type": "address"
        }
      ],
      "name": "NewRSVP",
      "type": "event"
    },
    {
      "inputs": [
        {
          "internalType": "bytes32",
          "name": "eventId",
          "type": "bytes32"
        }
      ],
      "name": "confirmAllAttendees",
      "outputs": [],
      "stateMutability": "nonpayable",
      "type": "function"
    },
    {
      "inputs": [
        {
          "internalType": "bytes32",
          "name": "eventId",
          "type": "bytes32"
        },
        {
          "internalType": "address",
          "name": "attendee",
          "type": "address"
        }
      ],
      "name": "confirmAttendee",
      "outputs": [],
      "stateMutability": "nonpayable",
      "type": "function"
    },
    {
      "inputs": [
        {
          "internalType": "uint256",
          "name": "eventTimestamp",
          "type": "uint256"
        },
        {
          "internalType": "uint256",
          "name": "deposit",
          "type": "uint256"
        },
        {
          "internalType": "uint256",
          "name": "maxCapacity",
          "type": "uint256"
        },
        {
          "internalType": "string",
          "name": "eventDataCID",
          "type": "string"
        }
      ],
      "name": "createNewEvent",
      "outputs": [],
      "stateMutability": "nonpayable",
      "type": "function"
    },
    {
      "inputs": [
        {
          "internalType": "bytes32",
          "name": "eventId",
          "type": "bytes32"
        }
      ],
      "name": "createNewRSVP",
      "outputs": [],
      "stateMutability": "payable",
      "type": "function"
    },
    {
      "inputs": [
        {
          "internalType": "bytes32",
          "name": "",
          "type": "bytes32"
        }
      ],
      "name": "idToEvent",
      "outputs": [
        {
          "internalType": "bytes32",
          "name": "eventId",
          "type": "bytes32"
        },
        {
          "internalType": "string",
          "name": "eventDataCID",
          "type": "string"
        },
        {
          "internalType": "address",
          "name": "eventOwner",
          "type": "address"
        },
        {
          "internalType": "uint256",
          "name": "eventTimestamp",
          "type": "uint256"
        },
        {
          "internalType": "uint256",
          "name": "deposit",
          "type": "uint256"
        },
        {
          "internalType": "uint256",
          "name": "maxCapacity",
          "type": "uint256"
        },
        {
          "internalType": "bool",
          "name": "paidOut",
          "type": "bool"
        }
      ],
      "stateMutability": "view",
      "type": "function"
    },
    {
      "inputs": [
        {
          "internalType": "bytes32",
          "name": "eventId",
          "type": "bytes32"
        }
      ],
      "name": "withdrawUnclaimedDeposits",
      "outputs": [],
      "stateMutability": "nonpayable",
      "type": "function"
    }
  ],
  "bytecode": "0x608060405234801561001057600080fd5b5061236f806100206000396000f3fe6080604052600436106100545760003560e01c806292098c1461005957806317f0165a146100825780636dcdf2cd1461009e57806379747571146100c7578063909ef021146100f0578063acdbe01214610133575b600080fd5b34801561006557600080fd5b50610080600480360381019061007b91906114e0565b61015c565b005b61009c6004803603810190610097919061159e565b610371565b005b3480156100aa57600080fd5b506100c560048036038101906100c09190611629565b6105dd565b005b3480156100d357600080fd5b506100ee60048036038101906100e9919061159e565b610ab4565b005b3480156100fc57600080fd5b506101176004803603810190610112919061159e565b610f6c565b60405161012a9796959493929190611741565b60405180910390f35b34801561013f57600080fd5b5061015a6004803603810190610155919061159e565b611063565b005b60003330878787604051602001610177959493929190611820565b60405160208183030381529060405280519060200120905060608060405180610120016040528084815260200186868080601f016020809104026020016040519081016040528093929190818152602001838380828437600081840152601f19601f8201169050808301925050505050505081526020013373ffffffffffffffffffffffffffffffffffffffff168152602001898152602001888152602001878152602001838152602001828152602001600015158152506000808581526020019081526020016000206000820151816000015560208201518160010190816102609190611aba565b5060408201518160020160006101000a81548173ffffffffffffffffffffffffffffffffffffffff021916908373ffffffffffffffffffffffffffffffffffffffff160217905550606082015181600301556080820151816004015560a0820151816005015560c08201518160060190805190602001906102e2929190611394565b5060e08201518160070190805190602001906102ff929190611394565b506101008201518160080160006101000a81548160ff0219169083151502179055509050507f2553138c3f9c9008f266dbdbe9fc64f5b71e098d06ef714a190a65a8b9fc6bf383338a898b8a8a60405161035f9796959493929190611bc8565b60405180910390a15050505050505050565b60008060008381526020019081526020016000209050806004015434146103cd576040517f08c379a00000000000000000000000000000000000000000000000000000000081526004016103c490611c7e565b60405180910390fd5b8060030154421115610414576040517f08c379a000000000000000000000000000000000000000000000000000000000815260040161040b90611cea565b60405180910390fd5b8060050154816006018054905010610461576040517f08c379a000000000000000000000000000000000000000000000000000000000815260040161045890611d56565b60405180910390fd5b60005b81600601805490508160ff16101561053a573373ffffffffffffffffffffffffffffffffffffffff16826006018260ff16815481106104a6576104a5611d76565b5b9060005260206000200160009054906101000a900473ffffffffffffffffffffffffffffffffffffffff1673ffffffffffffffffffffffffffffffffffffffff1603610527576040517f08c379a000000000000000000000000000000000000000000000000000000000815260040161051e90611df1565b60405180910390fd5b808061053290611e4d565b915050610464565b5080600601339080600181540180825580915050600190039060005260206000200160009091909190916101000a81548173ffffffffffffffffffffffffffffffffffffffff021916908373ffffffffffffffffffffffffffffffffffffffff1602179055507fb79f4240bbdd272d98e02a5db7f0cf156e5fc000961c517670a26eeeec63ed9082336040516105d1929190611e76565b60405180910390a15050565b600080600084815260200190815260200160002090508060020160009054906101000a900473ffffffffffffffffffffffffffffffffffffffff1673ffffffffffffffffffffffffffffffffffffffff163373ffffffffffffffffffffffffffffffffffffffff1614610685576040517f08c379a000000000000000000000000000000000000000000000000000000000815260040161067c90611eeb565b60405180910390fd5b600080600090505b82600601805490508160ff16101561076f578373ffffffffffffffffffffffffffffffffffffffff16836006018260ff16815481106106cf576106ce611d76565b5b9060005260206000200160009054906101000a900473ffffffffffffffffffffffffffffffffffffffff1673ffffffffffffffffffffffffffffffffffffffff160361075c57826006018160ff168154811061072e5761072d611d76565b5b9060005260206000200160009054906101000a900473ffffffffffffffffffffffffffffffffffffffff1691505b808061076790611e4d565b91505061068d565b508273ffffffffffffffffffffffffffffffffffffffff168173ffffffffffffffffffffffffffffffffffffffff16146107de576040517f08c379a00000000000000000000000000000000000000000000000000000000081526004016107d590611f57565b60405180910390fd5b60005b82600701805490508160ff1610156108b7578373ffffffffffffffffffffffffffffffffffffffff16836007018260ff168154811061082357610822611d76565b5b9060005260206000200160009054906101000a900473ffffffffffffffffffffffffffffffffffffffff1673ffffffffffffffffffffffffffffffffffffffff16036108a4576040517f08c379a000000000000000000000000000000000000000000000000000000000815260040161089b90611fc3565b60405180910390fd5b80806108af90611e4d565b9150506107e1565b50600015158260080160009054906101000a900460ff16151514610910576040517f08c379a00000000000000000000000000000000000000000000000000000000081526004016109079061202f565b60405180910390fd5b81600701839080600181540180825580915050600190039060005260206000200160009091909190916101000a81548173ffffffffffffffffffffffffffffffffffffffff021916908373ffffffffffffffffffffffffffffffffffffffff16021790555060008373ffffffffffffffffffffffffffffffffffffffff16836004015460405161099f90612080565b60006040518083038185875af1925050503d80600081146109dc576040519150601f19603f3d011682016040523d82523d6000602084013e6109e1565b606091505b5050905080610a3457826007018054806109fe576109fd612095565b5b6001900381819060005260206000200160006101000a81549073ffffffffffffffffffffffffffffffffffffffff021916905590555b80610a74576040517f08c379a0000000000000000000000000000000000000000000000000000000008152600401610a6b90612110565b60405180910390fd5b7ff8d1583a733d83bdd3ef5464129d0a95a36d62b382d31c6d0467a61f4264381b8585604051610aa5929190611e76565b60405180910390a15050505050565b60008060008381526020019081526020016000206040518061012001604052908160008201548152602001600182018054610aee906118dd565b80601f0160208091040260200160405190810160405280929190818152602001828054610b1a906118dd565b8015610b675780601f10610b3c57610100808354040283529160200191610b67565b820191906000526020600020905b815481529060010190602001808311610b4a57829003601f168201915b505050505081526020016002820160009054906101000a900473ffffffffffffffffffffffffffffffffffffffff1673ffffffffffffffffffffffffffffffffffffffff1673ffffffffffffffffffffffffffffffffffffffff16815260200160038201548152602001600482015481526020016005820154815260200160068201805480602002602001604051908101604052809291908181526020018280548015610c6957602002820191906000526020600020905b8160009054906101000a900473ffffffffffffffffffffffffffffffffffffffff1673ffffffffffffffffffffffffffffffffffffffff1681526020019060010190808311610c1f575b5050505050815260200160078201805480602002602001604051908101604052809291908181526020018280548015610cf757602002820191906000526020600020905b8160009054906101000a900473ffffffffffffffffffffffffffffffffffffffff1673ffffffffffffffffffffffffffffffffffffffff1681526020019060010190808311610cad575b505050505081526020016008820160009054906101000a900460ff161515151581525050905080610100015115610d63576040517f08c379a0000000000000000000000000000000000000000000000000000000008152600401610d5a9061217c565b60405180910390fd5b62093a808160600151610d76919061219c565b421015610db8576040517f08c379a0000000000000000000000000000000000000000000000000000000008152600401610daf9061221c565b60405180910390fd5b806040015173ffffffffffffffffffffffffffffffffffffffff163373ffffffffffffffffffffffffffffffffffffffff1614610e2a576040517f08c379a0000000000000000000000000000000000000000000000000000000008152600401610e2190612288565b60405180910390fd5b60008160e00151518260c0015151610e4291906122a8565b90506000826080015182610e5691906122dc565b905060018361010001901515908115158152505060003373ffffffffffffffffffffffffffffffffffffffff1682604051610e9090612080565b60006040518083038185875af1925050503d8060008114610ecd576040519150601f19603f3d011682016040523d82523d6000602084013e610ed2565b606091505b5050905080610eee576000846101000190151590811515815250505b80610f2e576040517f08c379a0000000000000000000000000000000000000000000000000000000008152600401610f2590612110565b60405180910390fd5b7f393073ea1365f611c3d2f240c992960d2b99dc81715555d3fc40fc55ba80af9c85604051610f5d919061231e565b60405180910390a15050505050565b6000602052806000526040600020600091509050806000015490806001018054610f95906118dd565b80601f0160208091040260200160405190810160405280929190818152602001828054610fc1906118dd565b801561100e5780601f10610fe35761010080835404028352916020019161100e565b820191906000526020600020905b815481529060010190602001808311610ff157829003601f168201915b5050505050908060020160009054906101000a900473ffffffffffffffffffffffffffffffffffffffff16908060030154908060040154908060050154908060080160009054906101000a900460ff16905087565b6000806000838152602001908152602001600020604051806101200160405290816000820154815260200160018201805461109d906118dd565b80601f01602080910402602001604051908101604052809291908181526020018280546110c9906118dd565b80156111165780601f106110eb57610100808354040283529160200191611116565b820191906000526020600020905b8154815290600101906020018083116110f957829003601f168201915b505050505081526020016002820160009054906101000a900473ffffffffffffffffffffffffffffffffffffffff1673ffffffffffffffffffffffffffffffffffffffff1673ffffffffffffffffffffffffffffffffffffffff1681526020016003820154815260200160048201548152602001600582015481526020016006820180548060200260200160405190810160405280929190818152602001828054801561121857602002820191906000526020600020905b8160009054906101000a900473ffffffffffffffffffffffffffffffffffffffff1673ffffffffffffffffffffffffffffffffffffffff16815260200190600101908083116111ce575b50505050508152602001600782018054806020026020016040519081016040528092919081815260200182805480156112a657602002820191906000526020600020905b8160009054906101000a900473ffffffffffffffffffffffffffffffffffffffff1673ffffffffffffffffffffffffffffffffffffffff168152602001906001019080831161125c575b505050505081526020016008820160009054906101000a900460ff1615151515815250509050806040015173ffffffffffffffffffffffffffffffffffffffff163373ffffffffffffffffffffffffffffffffffffffff161461133e576040517f08c379a000000000000000000000000000000000000000000000000000000000815260040161133590611eeb565b60405180910390fd5b60005b8160c00151518160ff16101561138f5761137c838360c001518360ff168151811061136f5761136e611d76565b5b60200260200101516105dd565b808061138790611e4d565b915050611341565b505050565b82805482825590600052602060002090810192821561140d579160200282015b8281111561140c5782518260006101000a81548173ffffffffffffffffffffffffffffffffffffffff021916908373ffffffffffffffffffffffffffffffffffffffff160217905550916020019190600101906113b4565b5b50905061141a919061141e565b5090565b5b8082111561143757600081600090555060010161141f565b5090565b600080fd5b600080fd5b6000819050919050565b61145881611445565b811461146357600080fd5b50565b6000813590506114758161144f565b92915050565b600080fd5b600080fd5b600080fd5b60008083601f8401126114a05761149f61147b565b5b8235905067ffffffffffffffff8111156114bd576114bc611480565b5b6020830191508360018202830111156114d9576114d8611485565b5b9250929050565b6000806000806000608086880312156114fc576114fb61143b565b5b600061150a88828901611466565b955050602061151b88828901611466565b945050604061152c88828901611466565b935050606086013567ffffffffffffffff81111561154d5761154c611440565b5b6115598882890161148a565b92509250509295509295909350565b6000819050919050565b61157b81611568565b811461158657600080fd5b50565b60008135905061159881611572565b92915050565b6000602082840312156115b4576115b361143b565b5b60006115c284828501611589565b91505092915050565b600073ffffffffffffffffffffffffffffffffffffffff82169050919050565b60006115f6826115cb565b9050919050565b611606816115eb565b811461161157600080fd5b50565b600081359050611623816115fd565b92915050565b600080604083850312156116405761163f61143b565b5b600061164e85828601611589565b925050602061165f85828601611614565b9150509250929050565b61167281611568565b82525050565b600081519050919050565b600082825260208201905092915050565b60005b838110156116b2578082015181840152602081019050611697565b60008484015250505050565b6000601f19601f8301169050919050565b60006116da82611678565b6116e48185611683565b93506116f4818560208601611694565b6116fd816116be565b840191505092915050565b611711816115eb565b82525050565b61172081611445565b82525050565b60008115159050919050565b61173b81611726565b82525050565b600060e082019050611756600083018a611669565b818103602083015261176881896116cf565b90506117776040830188611708565b6117846060830187611717565b6117916080830186611717565b61179e60a0830185611717565b6117ab60c0830184611732565b98975050505050505050565b60008160601b9050919050565b60006117cf826117b7565b9050919050565b60006117e1826117c4565b9050919050565b6117f96117f4826115eb565b6117d6565b82525050565b6000819050919050565b61181a61181582611445565b6117ff565b82525050565b600061182c82886117e8565b60148201915061183c82876117e8565b60148201915061184c8286611809565b60208201915061185c8285611809565b60208201915061186c8284611809565b6020820191508190509695505050505050565b7f4e487b7100000000000000000000000000000000000000000000000000000000600052604160045260246000fd5b7f4e487b7100000000000000000000000000000000000000000000000000000000600052602260045260246000fd5b600060028204905060018216806118f557607f821691505b602082108103611908576119076118ae565b5b50919050565b60008190508160005260206000209050919050565b60006020601f8301049050919050565b600082821b905092915050565b6000600883026119707fffffffffffffffffffffffffffffffffffffffffffffffffffffffffffffffff82611933565b61197a8683611933565b95508019841693508086168417925050509392505050565b6000819050919050565b60006119b76119b26119ad84611445565b611992565b611445565b9050919050565b6000819050919050565b6119d18361199c565b6119e56119dd826119be565b848454611940565b825550505050565b600090565b6119fa6119ed565b611a058184846119c8565b505050565b5b81811015611a2957611a1e6000826119f2565b600181019050611a0b565b5050565b601f821115611a6e57611a3f8161190e565b611a4884611923565b81016020851015611a57578190505b611a6b611a6385611923565b830182611a0a565b50505b505050565b600082821c905092915050565b6000611a9160001984600802611a73565b1980831691505092915050565b6000611aaa8383611a80565b9150826002028217905092915050565b611ac382611678565b67ffffffffffffffff811115611adc57611adb61187f565b5b611ae682546118dd565b611af1828285611a2d565b600060209050601f831160018114611b245760008415611b12578287015190505b611b1c8582611a9e565b865550611b84565b601f198416611b328661190e565b60005b82811015611b5a57848901518255600182019150602085019450602081019050611b35565b86831015611b775784890151611b73601f891682611a80565b8355505b6001600288020188555050505b505050505050565b82818337600083830152505050565b6000611ba78385611683565b9350611bb4838584611b8c565b611bbd836116be565b840190509392505050565b600060c082019050611bdd600083018a611669565b611bea6020830189611708565b611bf76040830188611717565b611c046060830187611717565b611c116080830186611717565b81810360a0830152611c24818486611b9b565b905098975050505050505050565b7f4e4f5420454e4f55474800000000000000000000000000000000000000000000600082015250565b6000611c68600a83611683565b9150611c7382611c32565b602082019050919050565b60006020820190508181036000830152611c9781611c5b565b9050919050565b7f414c52454144592048415050454e454400000000000000000000000000000000600082015250565b6000611cd4601083611683565b9150611cdf82611c9e565b602082019050919050565b60006020820190508181036000830152611d0381611cc7565b9050919050565b7f54686973206576656e7420686173207265616368656420636170616369747900600082015250565b6000611d40601f83611683565b9150611d4b82611d0a565b602082019050919050565b60006020820190508181036000830152611d6f81611d33565b9050919050565b7f4e487b7100000000000000000000000000000000000000000000000000000000600052603260045260246000fd5b7f414c524541445920434f4e4649524d4544000000000000000000000000000000600082015250565b6000611ddb601183611683565b9150611de682611da5565b602082019050919050565b60006020820190508181036000830152611e0a81611dce565b9050919050565b7f4e487b7100000000000000000000000000000000000000000000000000000000600052601160045260246000fd5b600060ff82169050919050565b6000611e5882611e40565b915060ff8203611e6b57611e6a611e11565b5b600182019050919050565b6000604082019050611e8b6000830185611669565b611e986020830184611708565b9392505050565b7f4e4f5420415554484f52495a4544000000000000000000000000000000000000600082015250565b6000611ed5600e83611683565b9150611ee082611e9f565b602082019050919050565b60006020820190508181036000830152611f0481611ec8565b9050919050565b7f4e4f205253565020544f20434f4e4649524d0000000000000000000000000000600082015250565b6000611f41601283611683565b9150611f4c82611f0b565b602082019050919050565b60006020820190508181036000830152611f7081611f34565b9050919050565b7f414c524541445920434c41494d45440000000000000000000000000000000000600082015250565b6000611fad600f83611683565b9150611fb882611f77565b602082019050919050565b60006020820190508181036000830152611fdc81611fa0565b9050919050565b7f414c52454144592050414944204f555400000000000000000000000000000000600082015250565b6000612019601083611683565b915061202482611fe3565b602082019050919050565b600060208201905081810360008301526120488161200c565b9050919050565b600081905092915050565b50565b600061206a60008361204f565b91506120758261205a565b600082019050919050565b600061208b8261205d565b9150819050919050565b7f4e487b7100000000000000000000000000000000000000000000000000000000600052603160045260246000fd5b7f4661696c656420746f2073656e64204574686572000000000000000000000000600082015250565b60006120fa601483611683565b9150612105826120c4565b602082019050919050565b60006020820190508181036000830152612129816120ed565b9050919050565b7f414c524541445920504149440000000000000000000000000000000000000000600082015250565b6000612166600c83611683565b915061217182612130565b602082019050919050565b6000602082019050818103600083015261219581612159565b9050919050565b60006121a782611445565b91506121b283611445565b92508282019050808211156121ca576121c9611e11565b5b92915050565b7f544f4f204541524c590000000000000000000000000000000000000000000000600082015250565b6000612206600983611683565b9150612211826121d0565b602082019050919050565b60006020820190508181036000830152612235816121f9565b9050919050565b7f4d555354204245204556454e54204f574e455200000000000000000000000000600082015250565b6000612272601383611683565b915061227d8261223c565b602082019050919050565b600060208201905081810360008301526122a181612265565b9050919050565b60006122b382611445565b91506122be83611445565b92508282039050818111156122d6576122d5611e11565b5b92915050565b60006122e782611445565b91506122f283611445565b925082820261230081611445565b9150828204841483151761231757612316611e11565b5b5092915050565b60006020820190506123336000830184611669565b9291505056fea264697066735822122025e9e8a909bb145eb90b714bca01a1fb5774c0baa524029da8f93a3ae25404be64736f6c63430008110033",
  "linkReferences": {},
  "deployedLinkReferences": {}
}